{
  "contractName": "DataSharingContract",
  "abi": [
    {
      "inputs": [
        {
          "internalType": "address",
          "name": "_ecRingSignatureContractAddress",
          "type": "address"
        }
      ],
      "payable": false,
      "stateMutability": "nonpayable",
      "type": "constructor"
    },
    {
      "anonymous": false,
      "inputs": [
        {
          "indexed": false,
          "internalType": "address",
          "name": "",
          "type": "address"
        }
      ],
      "name": "addNewDataCustomerEvent",
      "type": "event"
    },
    {
      "anonymous": false,
      "inputs": [
        {
          "indexed": false,
          "internalType": "address",
          "name": "",
          "type": "address"
        }
      ],
      "name": "removeDataCustomerEvent",
      "type": "event"
    },
    {
      "constant": true,
      "inputs": [],
      "name": "dataHash",
      "outputs": [
        {
          "internalType": "bytes32",
          "name": "",
          "type": "bytes32"
        }
      ],
      "payable": false,
      "stateMutability": "view",
      "type": "function"
    },
    {
      "constant": true,
      "inputs": [
        {
          "internalType": "address",
          "name": "",
          "type": "address"
        }
      ],
      "name": "hiddenAddressControlList",
      "outputs": [
        {
          "internalType": "bool",
          "name": "",
          "type": "bool"
        }
      ],
      "payable": false,
      "stateMutability": "view",
      "type": "function"
    },
    {
      "constant": true,
      "inputs": [],
      "name": "owner",
      "outputs": [
        {
          "internalType": "address",
          "name": "",
          "type": "address"
        }
      ],
      "payable": false,
      "stateMutability": "view",
      "type": "function"
    },
    {
      "constant": false,
      "inputs": [
        {
          "internalType": "bytes32",
          "name": "_dataHash",
          "type": "bytes32"
        }
      ],
      "name": "setDataHash",
      "outputs": [],
      "payable": false,
      "stateMutability": "nonpayable",
      "type": "function"
    },
    {
      "constant": false,
      "inputs": [
        {
          "internalType": "address",
          "name": "newCustomer",
          "type": "address"
        }
      ],
      "name": "addNewDataCustomer",
      "outputs": [],
      "payable": false,
      "stateMutability": "nonpayable",
      "type": "function"
    },
    {
      "constant": false,
      "inputs": [
        {
          "internalType": "address",
          "name": "customer",
          "type": "address"
        }
      ],
      "name": "removeDataCustomer",
      "outputs": [],
      "payable": false,
      "stateMutability": "nonpayable",
      "type": "function"
    },
    {
      "constant": false,
      "inputs": [
        {
          "components": [
            {
              "internalType": "string",
              "name": "data",
              "type": "string"
            },
            {
              "internalType": "uint256",
              "name": "delta",
              "type": "uint256"
            },
            {
              "components": [
                {
                  "internalType": "uint256",
                  "name": "X",
                  "type": "uint256"
                },
                {
                  "internalType": "uint256",
                  "name": "Y",
                  "type": "uint256"
                }
              ],
              "internalType": "struct ECSecp256k1.CurveElement[]",
              "name": "RList",
              "type": "tuple[]"
            },
            {
              "internalType": "uint256[]",
              "name": "hashList",
              "type": "uint256[]"
            }
          ],
          "internalType": "struct ECRingSignature.JGSignature",
          "name": "sig",
          "type": "tuple"
        },
        {
          "components": [
            {
              "internalType": "uint256",
              "name": "X",
              "type": "uint256"
            },
            {
              "internalType": "uint256",
              "name": "Y",
              "type": "uint256"
            }
          ],
          "internalType": "struct ECSecp256k1.CurveElement[]",
          "name": "pks",
          "type": "tuple[]"
        },
        {
          "internalType": "uint256",
          "name": "ringSize",
          "type": "uint256"
        }
      ],
      "name": "verifyUserEligibility",
      "outputs": [
        {
          "internalType": "bool",
          "name": "",
          "type": "bool"
        }
      ],
      "payable": false,
      "stateMutability": "nonpayable",
      "type": "function"
    }
  ],
  "bytecode": "0x608060405234801561001057600080fd5b50604051620011c9380380620011c9833981810160405261003491908101906100d0565b336000806101000a81548173ffffffffffffffffffffffffffffffffffffffff021916908373ffffffffffffffffffffffffffffffffffffffff16021790555080600260006101000a81548173ffffffffffffffffffffffffffffffffffffffff021916908373ffffffffffffffffffffffffffffffffffffffff16021790555050610142565b6000815190506100ca8161012b565b92915050565b6000602082840312156100e257600080fd5b60006100f0848285016100bb565b91505092915050565b60006101048261010b565b9050919050565b600073ffffffffffffffffffffffffffffffffffffffff82169050919050565b610134816100f9565b811461013f57600080fd5b50565b61107780620001526000396000f3fe608060405234801561001057600080fd5b506004361061007d5760003560e01c8063b6a8f7031161005b578063b6a8f703146100ee578063cbfe52f71461010a578063dc6c7e7b14610126578063e0a533d4146101425761007d565b80631b3012a31461008257806378f267f6146100a05780638da5cb5b146100d0575b600080fd5b61008a610172565b6040516100979190610cff565b60405180910390f35b6100ba60048036036100b59190810190610865565b610178565b6040516100c79190610ce4565b60405180910390f35b6100d8610198565b6040516100e59190610c99565b60405180910390f35b610108600480360361010391908101906108b7565b6101bd565b005b610124600480360361011f9190810190610865565b6101c7565b005b610140600480360361013b9190810190610865565b6102e8565b005b61015c600480360361015791908101906108e0565b610400565b6040516101699190610ce4565b60405180910390f35b60015481565b60036020528060005260406000206000915054906101000a900460ff1681565b6000809054906101000a900473ffffffffffffffffffffffffffffffffffffffff1681565b8060018190555050565b6000809054906101000a900473ffffffffffffffffffffffffffffffffffffffff1673ffffffffffffffffffffffffffffffffffffffff163373ffffffffffffffffffffffffffffffffffffffff1614610256576040517f08c379a000000000000000000000000000000000000000000000000000000000815260040161024d90610d1a565b60405180910390fd5b6001600360008373ffffffffffffffffffffffffffffffffffffffff1673ffffffffffffffffffffffffffffffffffffffff16815260200190815260200160002060006101000a81548160ff0219169083151502179055507f2078e1e48672ca4902b147ae5ee512d8e6cf04cadce5273a738ea77aeee4d511816040516102dd9190610c99565b60405180910390a150565b6000809054906101000a900473ffffffffffffffffffffffffffffffffffffffff1673ffffffffffffffffffffffffffffffffffffffff163373ffffffffffffffffffffffffffffffffffffffff1614610377576040517f08c379a000000000000000000000000000000000000000000000000000000000815260040161036e90610d3a565b60405180910390fd5b600360008273ffffffffffffffffffffffffffffffffffffffff1673ffffffffffffffffffffffffffffffffffffffff16815260200190815260200160002060006101000a81549060ff02191690557fc73145bdd5c662565d13b5c578aa3d519442194340bc0904d332d6572469a939816040516103f59190610c99565b60405180910390a150565b600080600260009054906101000a900473ffffffffffffffffffffffffffffffffffffffff1690508073ffffffffffffffffffffffffffffffffffffffff1663b5cd561885856040518363ffffffff1660e01b8152600401610463929190610cb4565b600060405180830381600087803b15801561047d57600080fd5b505af1158015610491573d6000803e3d6000fd5b505050508073ffffffffffffffffffffffffffffffffffffffff16639601349e86856040518363ffffffff1660e01b81526004016104d0929190610d5a565b602060405180830381600087803b1580156104ea57600080fd5b505af11580156104fe573d6000803e3d6000fd5b505050506040513d601f19601f82011682018060405250610522919081019061088e565b9150509392505050565b60008135905061053b81610fd8565b92915050565b600082601f83011261055257600080fd5b813561056561056082610db7565b610d8a565b9150818183526020840193506020810190508385604084028201111561058a57600080fd5b60005b838110156105ba57816105a08882610748565b84526020840193506040830192505060018101905061058d565b5050505092915050565b600082601f8301126105d557600080fd5b81356105e86105e382610ddf565b610d8a565b9150818183526020840193506020810190508385604084028201111561060d57600080fd5b60005b8381101561063d57816106238882610748565b845260208401935060408301925050600181019050610610565b5050505092915050565b600082601f83011261065857600080fd5b813561066b61066682610e07565b610d8a565b9150818183526020840193506020810190508385602084028201111561069057600080fd5b60005b838110156106c057816106a68882610850565b845260208401935060208301925050600181019050610693565b5050505092915050565b6000815190506106d981610fef565b92915050565b6000813590506106ee81611006565b92915050565b600082601f83011261070557600080fd5b813561071861071382610e2f565b610d8a565b9150808252602083016020830185838301111561073457600080fd5b61073f838284610f85565b50505092915050565b60006040828403121561075a57600080fd5b6107646040610d8a565b9050600061077484828501610850565b600083015250602061078884828501610850565b60208301525092915050565b6000608082840312156107a657600080fd5b6107b06080610d8a565b9050600082013567ffffffffffffffff8111156107cc57600080fd5b6107d8848285016106f4565b60008301525060206107ec84828501610850565b602083015250604082013567ffffffffffffffff81111561080c57600080fd5b61081884828501610541565b604083015250606082013567ffffffffffffffff81111561083857600080fd5b61084484828501610647565b60608301525092915050565b60008135905061085f8161101d565b92915050565b60006020828403121561087757600080fd5b60006108858482850161052c565b91505092915050565b6000602082840312156108a057600080fd5b60006108ae848285016106ca565b91505092915050565b6000602082840312156108c957600080fd5b60006108d7848285016106df565b91505092915050565b6000806000606084860312156108f557600080fd5b600084013567ffffffffffffffff81111561090f57600080fd5b61091b86828701610794565b935050602084013567ffffffffffffffff81111561093857600080fd5b610944868287016105c4565b925050604061095586828701610850565b9150509250925092565b600061096b8383610bdb565b60408301905092915050565b60006109838383610c7b565b60208301905092915050565b61099881610f33565b82525050565b60006109a982610e96565b6109b38185610eef565b93506109be83610e6b565b8060005b838110156109ef5781516109d6888261095f565b97506109e183610ec4565b9250506001810190506109c2565b5085935050505092915050565b6000610a0782610e8b565b610a118185610ede565b9350610a1c83610e5b565b8060005b83811015610a4d578151610a34888261095f565b9750610a3f83610eb7565b925050600181019050610a20565b5085935050505092915050565b6000610a6582610ea1565b610a6f8185610f00565b9350610a7a83610e7b565b8060005b83811015610aab578151610a928882610977565b9750610a9d83610ed1565b925050600181019050610a7e565b5085935050505092915050565b610ac181610f45565b82525050565b610ad081610f51565b82525050565b6000610ae182610eac565b610aeb8185610f11565b9350610afb818560208601610f94565b610b0481610fc7565b840191505092915050565b6000610b1c602983610f22565b91507f4f6e6c79206f776e65722063616e20616464206e6577207265766f636174696f60008301527f6e206d656d6265727300000000000000000000000000000000000000000000006020830152604082019050919050565b6000610b82602883610f22565b91507f4f6e6c79206f776e65722063616e2064656c657465207265766f636174696f6e60008301527f206d656d626572730000000000000000000000000000000000000000000000006020830152604082019050919050565b604082016000820151610bf16000850182610c7b565b506020820151610c046020850182610c7b565b50505050565b60006080830160008301518482036000860152610c278282610ad6565b9150506020830151610c3c6020860182610c7b565b5060408301518482036040860152610c5482826109fc565b91505060608301518482036060860152610c6e8282610a5a565b9150508091505092915050565b610c8481610f7b565b82525050565b610c9381610f7b565b82525050565b6000602082019050610cae600083018461098f565b92915050565b60006040820190508181036000830152610cce818561099e565b9050610cdd6020830184610c8a565b9392505050565b6000602082019050610cf96000830184610ab8565b92915050565b6000602082019050610d146000830184610ac7565b92915050565b60006020820190508181036000830152610d3381610b0f565b9050919050565b60006020820190508181036000830152610d5381610b75565b9050919050565b60006040820190508181036000830152610d748185610c0a565b9050610d836020830184610c8a565b9392505050565b6000604051905081810181811067ffffffffffffffff82111715610dad57600080fd5b8060405250919050565b600067ffffffffffffffff821115610dce57600080fd5b602082029050602081019050919050565b600067ffffffffffffffff821115610df657600080fd5b602082029050602081019050919050565b600067ffffffffffffffff821115610e1e57600080fd5b602082029050602081019050919050565b600067ffffffffffffffff821115610e4657600080fd5b601f19601f8301169050602081019050919050565b6000819050602082019050919050565b6000819050602082019050919050565b6000819050602082019050919050565b600081519050919050565b600081519050919050565b600081519050919050565b600081519050919050565b6000602082019050919050565b6000602082019050919050565b6000602082019050919050565b600082825260208201905092915050565b600082825260208201905092915050565b600082825260208201905092915050565b600082825260208201905092915050565b600082825260208201905092915050565b6000610f3e82610f5b565b9050919050565b60008115159050919050565b6000819050919050565b600073ffffffffffffffffffffffffffffffffffffffff82169050919050565b6000819050919050565b82818337600083830152505050565b60005b83811015610fb2578082015181840152602081019050610f97565b83811115610fc1576000848401525b50505050565b6000601f19601f8301169050919050565b610fe181610f33565b8114610fec57600080fd5b50565b610ff881610f45565b811461100357600080fd5b50565b61100f81610f51565b811461101a57600080fd5b50565b61102681610f7b565b811461103157600080fd5b5056fea365627a7a723158209510e603de89ef9188e1e4670df0031f762954060010777074da124c45ba49206c6578706572696d656e74616cf564736f6c63430005100040",
  "source": "pragma solidity >= 0.5.0 < 0.7.0;\r\npragma experimental ABIEncoderV2;\r\n\r\nimport \"./ECRingSignature.sol\";\r\n\r\ncontract DataSharingContract {\r\n\r\n    address public owner;\r\n    bytes32 public dataHash;\r\n    address private ecRingSignatureContractAddress;\r\n\r\n    /**\r\n     * @dev Store all the data consumers by their hidden addresses\r\n    */\r\n    mapping(address => bool) public hiddenAddressControlList;\r\n\r\n    event addNewDataCustomerEvent(address);\r\n    event removeDataCustomerEvent(address);\r\n\r\n    constructor(address _ecRingSignatureContractAddress) public {\r\n        owner = msg.sender;\r\n        ecRingSignatureContractAddress = _ecRingSignatureContractAddress;\r\n    }\r\n\r\n\r\n    /**\r\n     * @dev Register the hash of data into the contract\r\n     * @param _dataHash: The hash of data\r\n    */\r\n\r\n    function setDataHash(bytes32 _dataHash) public {\r\n        dataHash = _dataHash;\r\n    }\r\n\r\n    /**\r\n     * @dev Add a new data consumer\r\n     * @param newCustomer: the hidden address of the new user\r\n    */\r\n\r\n    function addNewDataCustomer(address newCustomer) public {\r\n        require(msg.sender== owner, \"Only owner can add new revocation members\");\r\n        hiddenAddressControlList[newCustomer] = true;\r\n\r\n        emit addNewDataCustomerEvent(newCustomer);\r\n\r\n    }\r\n\r\n    /**\r\n     * @dev Remove the hidden address of a consumer\r\n     * @param customer: the address of the consumer\r\n    */\r\n\r\n\r\n    function removeDataCustomer(address customer) public {\r\n        require(msg.sender== owner, \"Only owner can delete revocation members\");\r\n        delete hiddenAddressControlList[customer];\r\n\r\n        emit removeDataCustomerEvent(customer);\r\n    }\r\n\r\n\r\n    /**\r\n     * @dev Verify the signature provided by a data consumer\r\n     * @param sig: the signature\r\n     * @param pks: the list of the ring's public keys\r\n     * @param ringSize: the size of the ring\r\n    */\r\n\r\n\r\n    function verifyUserEligibility(ECRingSignature.JGSignature memory sig, ECSecp256k1.CurveElement[] memory pks, uint256 ringSize) public returns(bool){\r\n        ECRingSignature ecRingSignature = ECRingSignature(ecRingSignatureContractAddress);\r\n        ecRingSignature.setPublicKeyList(pks, ringSize);\r\n\r\n        return ecRingSignature.ringVerify(sig, ringSize);\r\n    }\r\n}\r\n",
  "sourcePath": "D:\\OneDrive\\Desktop\\hack_cult_project\\contracts\\DataSharingContract.sol",
  "compiler": {
    "name": "solc",
    "version": "0.5.16+commit.9c3226ce.Emscripten.clang"
  },
  "schemaVersion": "3.4.16",
  "updatedAt": "2024-12-13T10:10:33.718Z",
  "networkType": "ethereum",
  "devdoc": {
    "methods": {
      "addNewDataCustomer(address)": {
        "details": "Add a new data consumer",
        "params": {
          "newCustomer": ": the hidden address of the new user"
        }
      },
      "removeDataCustomer(address)": {
        "details": "Remove the hidden address of a consumer",
        "params": {
          "customer": ": the address of the consumer"
        }
      },
      "setDataHash(bytes32)": {
        "details": "Register the hash of data into the contract",
        "params": {
          "_dataHash": ": The hash of data"
        }
      },
      "verifyUserEligibility((string,uint256,(uint256,uint256)[],uint256[]),(uint256,uint256)[],uint256)": {
        "details": "Verify the signature provided by a data consumer",
        "params": {
          "pks": ": the list of the ring's public keys",
          "ringSize": ": the size of the ring",
          "sig": ": the signature"
        }
      }
    }
  },
  "userdoc": {
    "methods": {}
  }
}