{
  "contractName": "ECRingSignature",
  "abi": [
    {
      "constant": true,
      "inputs": [
        {
          "internalType": "uint256",
          "name": "privKey",
          "type": "uint256"
        }
      ],
      "name": "derivePubKey",
      "outputs": [
        {
          "components": [
            {
              "internalType": "uint256",
              "name": "X",
              "type": "uint256"
            },
            {
              "internalType": "uint256",
              "name": "Y",
              "type": "uint256"
            }
          ],
          "internalType": "struct ECSecp256k1.CurveElement",
          "name": "",
          "type": "tuple"
        }
      ],
      "payable": false,
      "stateMutability": "pure",
      "type": "function"
    },
    {
      "constant": true,
      "inputs": [
        {
          "components": [
            {
              "internalType": "uint256",
              "name": "X",
              "type": "uint256"
            },
            {
              "internalType": "uint256",
              "name": "Y",
              "type": "uint256"
            }
          ],
          "internalType": "struct ECSecp256k1.CurveElement",
          "name": "e1",
          "type": "tuple"
        },
        {
          "components": [
            {
              "internalType": "uint256",
              "name": "X",
              "type": "uint256"
            },
            {
              "internalType": "uint256",
              "name": "Y",
              "type": "uint256"
            }
          ],
          "internalType": "struct ECSecp256k1.CurveElement",
          "name": "e2",
          "type": "tuple"
        }
      ],
      "name": "ecAdd",
      "outputs": [
        {
          "components": [
            {
              "internalType": "uint256",
              "name": "X",
              "type": "uint256"
            },
            {
              "internalType": "uint256",
              "name": "Y",
              "type": "uint256"
            }
          ],
          "internalType": "struct ECSecp256k1.CurveElement",
          "name": "",
          "type": "tuple"
        }
      ],
      "payable": false,
      "stateMutability": "pure",
      "type": "function"
    },
    {
      "constant": true,
      "inputs": [
        {
          "components": [
            {
              "internalType": "uint256",
              "name": "X",
              "type": "uint256"
            },
            {
              "internalType": "uint256",
              "name": "Y",
              "type": "uint256"
            }
          ],
          "internalType": "struct ECSecp256k1.CurveElement",
          "name": "e1",
          "type": "tuple"
        },
        {
          "components": [
            {
              "internalType": "uint256",
              "name": "X",
              "type": "uint256"
            },
            {
              "internalType": "uint256",
              "name": "Y",
              "type": "uint256"
            }
          ],
          "internalType": "struct ECSecp256k1.CurveElement",
          "name": "e2",
          "type": "tuple"
        }
      ],
      "name": "ecEqual",
      "outputs": [
        {
          "internalType": "bool",
          "name": "",
          "type": "bool"
        }
      ],
      "payable": false,
      "stateMutability": "pure",
      "type": "function"
    },
    {
      "constant": true,
      "inputs": [
        {
          "internalType": "uint256",
          "name": "k",
          "type": "uint256"
        },
        {
          "components": [
            {
              "internalType": "uint256",
              "name": "X",
              "type": "uint256"
            },
            {
              "internalType": "uint256",
              "name": "Y",
              "type": "uint256"
            }
          ],
          "internalType": "struct ECSecp256k1.CurveElement",
          "name": "e",
          "type": "tuple"
        }
      ],
      "name": "ecMul",
      "outputs": [
        {
          "components": [
            {
              "internalType": "uint256",
              "name": "X",
              "type": "uint256"
            },
            {
              "internalType": "uint256",
              "name": "Y",
              "type": "uint256"
            }
          ],
          "internalType": "struct ECSecp256k1.CurveElement",
          "name": "",
          "type": "tuple"
        }
      ],
      "payable": false,
      "stateMutability": "pure",
      "type": "function"
    },
    {
      "constant": true,
      "inputs": [
        {
          "components": [
            {
              "internalType": "uint256",
              "name": "X",
              "type": "uint256"
            },
            {
              "internalType": "uint256",
              "name": "Y",
              "type": "uint256"
            }
          ],
          "internalType": "struct ECSecp256k1.CurveElement",
          "name": "e1",
          "type": "tuple"
        },
        {
          "components": [
            {
              "internalType": "uint256",
              "name": "X",
              "type": "uint256"
            },
            {
              "internalType": "uint256",
              "name": "Y",
              "type": "uint256"
            }
          ],
          "internalType": "struct ECSecp256k1.CurveElement",
          "name": "e2",
          "type": "tuple"
        }
      ],
      "name": "ecSub",
      "outputs": [
        {
          "components": [
            {
              "internalType": "uint256",
              "name": "X",
              "type": "uint256"
            },
            {
              "internalType": "uint256",
              "name": "Y",
              "type": "uint256"
            }
          ],
          "internalType": "struct ECSecp256k1.CurveElement",
          "name": "",
          "type": "tuple"
        }
      ],
      "payable": false,
      "stateMutability": "pure",
      "type": "function"
    },
    {
      "constant": true,
      "inputs": [
        {
          "internalType": "uint256",
          "name": "",
          "type": "uint256"
        }
      ],
      "name": "pks",
      "outputs": [
        {
          "internalType": "uint256",
          "name": "X",
          "type": "uint256"
        },
        {
          "internalType": "uint256",
          "name": "Y",
          "type": "uint256"
        }
      ],
      "payable": false,
      "stateMutability": "view",
      "type": "function"
    },
    {
      "constant": true,
      "inputs": [
        {
          "internalType": "uint256",
          "name": "seed",
          "type": "uint256"
        }
      ],
      "name": "randomElement",
      "outputs": [
        {
          "components": [
            {
              "internalType": "uint256",
              "name": "X",
              "type": "uint256"
            },
            {
              "internalType": "uint256",
              "name": "Y",
              "type": "uint256"
            }
          ],
          "internalType": "struct ECSecp256k1.CurveElement",
          "name": "",
          "type": "tuple"
        }
      ],
      "payable": false,
      "stateMutability": "view",
      "type": "function"
    },
    {
      "constant": false,
      "inputs": [
        {
          "components": [
            {
              "internalType": "uint256",
              "name": "X",
              "type": "uint256"
            },
            {
              "internalType": "uint256",
              "name": "Y",
              "type": "uint256"
            }
          ],
          "internalType": "struct ECSecp256k1.CurveElement[]",
          "name": "pkeys",
          "type": "tuple[]"
        },
        {
          "internalType": "uint256",
          "name": "listSize",
          "type": "uint256"
        }
      ],
      "name": "setPublicKeyList",
      "outputs": [],
      "payable": false,
      "stateMutability": "nonpayable",
      "type": "function"
    },
    {
      "constant": true,
      "inputs": [
        {
          "internalType": "uint256",
          "name": "ringSize",
          "type": "uint256"
        },
        {
          "internalType": "string",
          "name": "data",
          "type": "string"
        },
        {
          "internalType": "uint256",
          "name": "sk",
          "type": "uint256"
        },
        {
          "internalType": "uint256",
          "name": "indexS",
          "type": "uint256"
        }
      ],
      "name": "ringSign",
      "outputs": [
        {
          "components": [
            {
              "internalType": "string",
              "name": "data",
              "type": "string"
            },
            {
              "internalType": "uint256",
              "name": "delta",
              "type": "uint256"
            },
            {
              "components": [
                {
                  "internalType": "uint256",
                  "name": "X",
                  "type": "uint256"
                },
                {
                  "internalType": "uint256",
                  "name": "Y",
                  "type": "uint256"
                }
              ],
              "internalType": "struct ECSecp256k1.CurveElement[]",
              "name": "RList",
              "type": "tuple[]"
            },
            {
              "internalType": "uint256[]",
              "name": "hashList",
              "type": "uint256[]"
            }
          ],
          "internalType": "struct ECRingSignature.JGSignature",
          "name": "",
          "type": "tuple"
        }
      ],
      "payable": false,
      "stateMutability": "view",
      "type": "function"
    },
    {
      "constant": false,
      "inputs": [
        {
          "components": [
            {
              "internalType": "string",
              "name": "data",
              "type": "string"
            },
            {
              "internalType": "uint256",
              "name": "delta",
              "type": "uint256"
            },
            {
              "components": [
                {
                  "internalType": "uint256",
                  "name": "X",
                  "type": "uint256"
                },
                {
                  "internalType": "uint256",
                  "name": "Y",
                  "type": "uint256"
                }
              ],
              "internalType": "struct ECSecp256k1.CurveElement[]",
              "name": "RList",
              "type": "tuple[]"
            },
            {
              "internalType": "uint256[]",
              "name": "hashList",
              "type": "uint256[]"
            }
          ],
          "internalType": "struct ECRingSignature.JGSignature",
          "name": "sig",
          "type": "tuple"
        },
        {
          "internalType": "uint256",
          "name": "ringSize",
          "type": "uint256"
        }
      ],
      "name": "ringVerify",
      "outputs": [
        {
          "internalType": "bool",
          "name": "",
          "type": "bool"
        }
      ],
      "payable": false,
      "stateMutability": "nonpayable",
      "type": "function"
    }
  ],
  "bytecode": "0x608060405234801561001057600080fd5b50612385806100206000396000f3fe608060405234801561001057600080fd5b506004361061009e5760003560e01c8063b5cd561811610066578063b5cd561814610193578063bc9e2bcf146101af578063cecd7863146101df578063d499b2c31461020f578063e650ccc2146102405761009e565b80637c5ed4d9146100a3578063813fdd78146100d35780639601349e146101035780639d59808114610133578063b29673c214610163575b600080fd5b6100bd60048036036100b89190810190611b76565b610270565b6040516100ca91906120bb565b60405180910390f35b6100ed60048036036100e89190810190611b4d565b6105c1565b6040516100fa91906120a0565b60405180910390f35b61011d60048036036101189190810190611af9565b610633565b60405161012a9190612025565b60405180910390f35b61014d60048036036101489190810190611bf1565b6108cd565b60405161015a91906120a0565b60405180910390f35b61017d60048036036101789190810190611abd565b610931565b60405161018a91906120a0565b60405180910390f35b6101ad60048036036101a89190810190611a69565b61099e565b005b6101c960048036036101c49190810190611b4d565b610a16565b6040516101d691906120a0565b60405180910390f35b6101f960048036036101f49190810190611abd565b610ab1565b6040516102069190612025565b60405180910390f35b61022960048036036102249190810190611b4d565b610aea565b6040516102379291906120dd565b60405180910390f35b61025a60048036036102559190810190611abd565b610b1b565b60405161026791906120a0565b60405180910390f35b6102786115dc565b6060856040519080825280602002602001820160405280156102b457816020015b6102a1611604565b8152602001906001900390816102995790505b5090506060866040519080825280602002602001820160405280156102e85781602001602082028038833980820191505090505b50905060008090506102f861161e565b60405180604001604052807f79be667ef9dcbbac55a06295ce870b07029bfcdb2dce28d959f2815b16f8179881526020017f483ada7726a3c4655da4fbfc0e1108a8fd17b448a68554199c47d08ffb10d4b8815250905060008061035a61161e565b61036261161e565b61036a61161e565b6040518060400160405280600081526020016000815250915060008090505b8e8110156104a6578b81146104995744816040516020016103ab929190611ff9565b6040516020818303038152906040528051906020012060001c95506103d086886108cd565b9350838a82815181106103df57fe5b60200260200101819052508d8460000151856020015160405160200161040793929190611f87565b6040516020818303038152906040528051906020012060001c9450610468856000036000838154811061043657fe5b9060005260206000209060020201604051806040016040529081600082015481526020016001820154815250506108cd565b91506104748383610b1b565b92508489828151811061048357fe5b602002602001018181525050848d028601880197505b8080600101915050610389565b50448b6040516020016104ba929190611ff9565b6040516020818303038152906040528051906020012060001c945084870196507ffffffffffffffffffffffffffffffffffffffffffffffffffffffffefffffc2f878161050357fe5b06965061050e61161e565b61051886886108cd565b90506105248382610b1b565b9250828a8d8151811061053357fe5b60200260200101819052508d8360000151846020015160405160200161055b93929190611f87565b6040516020818303038152906040528051906020012060001c898d8151811061058057fe5b60200260200101818152505060405180608001604052808f81526020018981526020018b81526020018a8152509a5050505050505050505050949350505050565b6105c961161e565b600082446040516020016105de929190611ff9565b6040516020818303038152906040528051906020012060001c905061062b7ffffffffffffffffffffffffffffffffffffffffffffffffffffffffefffffc2f828161062557fe5b06610a16565b915050919050565b600061063d61161e565b60405180604001604052807f79be667ef9dcbbac55a06295ce870b07029bfcdb2dce28d959f2815b16f8179881526020017f483ada7726a3c4655da4fbfc0e1108a8fd17b448a68554199c47d08ffb10d4b88152509050600080600090505b84811015610745578560000151866040015182815181106106b957fe5b602002602001015160000151876040015183815181106106d557fe5b6020026020010151602001516040516020016106f393929190611fc0565b6040516020818303038152906040528051906020012060001c91508560600151818151811061071e57fe5b6020026020010151821461073857600093505050506108c7565b808060010191505061069c565b5061074e61161e565b61075661161e565b6107648760200151856108cd565b915061078881886040015160008151811061077b57fe5b6020026020010151610b1b565b90506107ee816107e989606001516000815181106107a257fe5b6020026020010151600080815481106107b757fe5b9060005260206000209060020201604051806040016040529081600082015481526020016001820154815250506108cd565b610b1b565b90506000600190505b8681101561089457610820828960400151838151811061081357fe5b6020026020010151610b1b565b9150610885826108808a60600151848151811061083957fe5b60200260200101516000858154811061084e57fe5b9060005260206000209060020201604051806040016040529081600082015481526020016001820154815250506108cd565b610b1b565b915080806001019150506107f7565b506000806108a29190611638565b6108ac8282610ab1565b156108be5760019450505050506108c7565b60009450505050505b92915050565b6108d561161e565b60008061090e858560000151866020015160007ffffffffffffffffffffffffffffffffffffffffffffffffffffffffefffffc2f610b88565b915091506040518060400160405280838152602001828152509250505092915050565b61093961161e565b60008061097b856000015186602001518660000151876020015160007ffffffffffffffffffffffffffffffffffffffffffffffffffffffffefffffc2f610bc2565b915091506040518060400160405280838152602001828152509250505092915050565b60008090505b81811015610a115760008382815181106109ba57fe5b602002602001015190806001815401808255809150509060018203906000526020600020906002020160009091929091909150600082015181600001556020820151816001015550505080806001019150506109a4565b505050565b610a1e61161e565b600080610a8f847f79be667ef9dcbbac55a06295ce870b07029bfcdb2dce28d959f2815b16f817987f483ada7726a3c4655da4fbfc0e1108a8fd17b448a68554199c47d08ffb10d4b860007ffffffffffffffffffffffffffffffffffffffffffffffffffffffffefffffc2f610b88565b9150915060405180604001604052808381526020018281525092505050919050565b600081600001518360000151148015610ad1575081602001518360200151145b15610adf5760019050610ae4565b600090505b92915050565b60008181548110610af757fe5b90600052602060002090600202016000915090508060000154908060010154905082565b610b2361161e565b600080610b65856000015186602001518660000151876020015160007ffffffffffffffffffffffffffffffffffffffffffffffffffffffffefffffc2f610bf6565b915091506040518060400160405280838152602001828152509250505092915050565b6000806000806000610b9f8a8a8a60018b8b610c6b565b925092509250610bb183838389610dff565b945094505050509550959350505050565b600080600080610bd3888887610e5a565b91509150610be58a8a84848a8a610bf6565b935093505050965096945050505050565b600080600080905060008090506000809050888b1415610c2f57610c1e8b8b60018a8a610e76565b809350819450829550505050610c4d565b610c408b8b60018c8c60018c611040565b8093508194508295505050505b610c5983838389610dff565b94509450505050965096945050505050565b600080600080899050610c7c61165c565b8981600060038110610c8a57fe5b6020020181815250508881600160038110610ca157fe5b6020020181815250508781600260038110610cb857fe5b6020020181815250506000809050600080905060006001905060008e1415610ced578282829750975097505050505050610df3565b5b60008514610de45760006001861614610d5057610d4383838387600060038110610d1457fe5b602002015188600160038110610d2657fe5b602002015189600260038110610d3857fe5b60200201518f611040565b8093508194508295505050505b60028581610d5a57fe5b049450610d9d84600060038110610d6d57fe5b602002015185600160038110610d7f57fe5b602002015186600260038110610d9157fe5b60200201518d8d610e76565b86600060038110610daa57fe5b6020020187600160038110610dbb57fe5b6020020188600260038110610dcc57fe5b60200201838152508381525083815250505050610cee565b82828297509750975050505050505b96509650969350505050565b6000806000610e0e8585611515565b905060008480610e1a57fe5b828309905060008580610e2957fe5b828a09905060008680610e3857fe5b8780610e4057fe5b8486098a0990508181955095505050505094509492505050565b600080848385850381610e6957fe5b0691509150935093915050565b600080600080861415610e9157878787925092509250611035565b610e9961165c565b8480610ea157fe5b898a0981600060038110610eb157fe5b6020020181815250508480610ec257fe5b88890981600160038110610ed257fe5b6020020181815250508480610ee357fe5b87880981600260038110610ef357fe5b60200201818152505060008580610f0657fe5b8680610f0e57fe5b83600160038110610f1b57fe5b60200201518c09600409905060008680610f3157fe5b8780610f3957fe5b8880610f4157fe5b85600260038110610f4e57fe5b602002015186600260038110610f6057fe5b6020020151098a098880610f7057fe5b85600060038110610f7d57fe5b602002015160030908905060008780610f9257fe5b8880610f9a57fe5b84850889038980610fa757fe5b84850908905060008880610fb757fe5b8980610fbf57fe5b8a80610fc757fe5b87600160038110610fd457fe5b602002015188600160038110610fe657fe5b6020020151096008098a038a80610ff957fe5b8b8061100157fe5b858d03880886090890506000898061101557fe5b8a8061101d57fe5b8d8f0960020990508282829850985098505050505050505b955095509592505050565b6000806000808a1480156110545750600089145b1561106757868686925092509250611508565b6000871480156110775750600086145b1561108a57898989925092509250611508565b61109261167e565b848061109a57fe5b898a09816000600481106110aa57fe5b60200201818152505084806110bb57fe5b816000600481106110c857fe5b60200201518a09816001600481106110dc57fe5b60200201818152505084806110ed57fe5b868709816002600481106110fd57fe5b602002018181525050848061110e57fe5b8160026004811061111b57fe5b602002015187098160036004811061112f57fe5b6020020181815250506040518060800160405280868061114b57fe5b8360026004811061115857fe5b60200201518e098152602001868061116c57fe5b8360036004811061117957fe5b60200201518d098152602001868061118d57fe5b8360006004811061119a57fe5b60200201518b09815260200186806111ae57fe5b836001600481106111bb57fe5b60200201518a098152509050806002600481106111d457fe5b6020020151816000600481106111e657fe5b6020020151141561129057806003600481106111fe57fe5b60200201518160016004811061121057fe5b602002015114611255576040517f08c379a000000000000000000000000000000000000000000000000000000000815260040161124c90612080565b60405180910390fd5b6040517f08c379a000000000000000000000000000000000000000000000000000000000815260040161128790612040565b60405180910390fd5b61129861167e565b85806112a057fe5b826000600481106112ad57fe5b60200201518703836002600481106112c157fe5b602002015108816000600481106112d457fe5b60200201818152505085806112e557fe5b826001600481106112f257fe5b602002015187038360036004811061130657fe5b6020020151088160016004811061131957fe5b602002018181525050858061132a57fe5b8160006004811061133757fe5b60200201518260006004811061134957fe5b6020020151098160026004811061135c57fe5b602002018181525050858061136d57fe5b8160006004811061137a57fe5b60200201518260026004811061138c57fe5b6020020151098160036004811061139f57fe5b602002018181525050600086806113b257fe5b826003600481106113bf57fe5b6020020151880388806113ce57fe5b846001600481106113db57fe5b6020020151856001600481106113ed57fe5b60200201510908905086806113fe57fe5b878061140657fe5b888061140e57fe5b8460026004811061141b57fe5b60200201518660006004811061142d57fe5b6020020151096002098803820890506000878061144657fe5b888061144e57fe5b838a038a8061145957fe5b8660026004811061146657fe5b60200201518860006004811061147857fe5b602002015109088460016004811061148c57fe5b6020020151099050878061149c57fe5b88806114a457fe5b846003600481106114b157fe5b6020020151866001600481106114c357fe5b602002015109890382089050600088806114d957fe5b89806114e157fe5b8b8f09856000600481106114f157fe5b602002015109905082828297509750975050505050505b9750975097945050505050565b60008083148061152457508183145b8061152f5750600082145b1561156f576040517f08c379a000000000000000000000000000000000000000000000000000000000815260040161156690612060565b60405180910390fd5b60008090506000600190506000849050600086905060005b600082146115ce5781838161159857fe5b0490508387806115a457fe5b88806115ac57fe5b8684098903870880955081965050508182820284038093508194505050611587565b849550505050505092915050565b6040518060800160405280606081526020016000815260200160608152602001606081525090565b604051806040016040528060008152602001600081525090565b604051806040016040528060008152602001600081525090565b508054600082556002029060005260206000209081019061165991906116a0565b50565b6040518060600160405280600390602082028038833980820191505090505090565b6040518060800160405280600490602082028038833980820191505090505090565b6116cc91905b808211156116c8576000808201600090556001820160009055506002016116a6565b5090565b90565b600082601f8301126116e057600080fd5b81356116f36116ee82612133565b612106565b9150818183526020840193506020810190508385604084028201111561171857600080fd5b60005b83811015611748578161172e8882611900565b84526020840193506040830192505060018101905061171b565b5050505092915050565b600082601f83011261176357600080fd5b81356117766117718261215b565b612106565b9150818183526020840193506020810190508385604084028201111561179b57600080fd5b60005b838110156117cb57816117b18882611900565b84526020840193506040830192505060018101905061179e565b5050505092915050565b600082601f8301126117e657600080fd5b81356117f96117f482612183565b612106565b9150818183526020840193506020810190508385602084028201111561181e57600080fd5b60005b8381101561184e57816118348882611a54565b845260208401935060208301925050600181019050611821565b5050505092915050565b600082601f83011261186957600080fd5b813561187c611877826121ab565b612106565b9150808252602083016020830185838301111561189857600080fd5b6118a38382846122ce565b50505092915050565b600082601f8301126118bd57600080fd5b81356118d06118cb826121d7565b612106565b915080825260208301602083018583830111156118ec57600080fd5b6118f78382846122ce565b50505092915050565b60006040828403121561191257600080fd5b61191c6040612106565b9050600061192c84828501611a54565b600083015250602061194084828501611a54565b60208301525092915050565b60006040828403121561195e57600080fd5b6119686040612106565b9050600061197884828501611a54565b600083015250602061198c84828501611a54565b60208301525092915050565b6000608082840312156119aa57600080fd5b6119b46080612106565b9050600082013567ffffffffffffffff8111156119d057600080fd5b6119dc84828501611858565b60008301525060206119f084828501611a54565b602083015250604082013567ffffffffffffffff811115611a1057600080fd5b611a1c848285016116cf565b604083015250606082013567ffffffffffffffff811115611a3c57600080fd5b611a48848285016117d5565b60608301525092915050565b600081359050611a638161232b565b92915050565b60008060408385031215611a7c57600080fd5b600083013567ffffffffffffffff811115611a9657600080fd5b611aa285828601611752565b9250506020611ab385828601611a54565b9150509250929050565b60008060808385031215611ad057600080fd5b6000611ade8582860161194c565b9250506040611aef8582860161194c565b9150509250929050565b60008060408385031215611b0c57600080fd5b600083013567ffffffffffffffff811115611b2657600080fd5b611b3285828601611998565b9250506020611b4385828601611a54565b9150509250929050565b600060208284031215611b5f57600080fd5b6000611b6d84828501611a54565b91505092915050565b60008060008060808587031215611b8c57600080fd5b6000611b9a87828801611a54565b945050602085013567ffffffffffffffff811115611bb757600080fd5b611bc3878288016118ac565b9350506040611bd487828801611a54565b9250506060611be587828801611a54565b91505092959194509250565b60008060608385031215611c0457600080fd5b6000611c1285828601611a54565b9250506020611c238582860161194c565b9150509250929050565b6000611c398383611eb2565b60408301905092915050565b6000611c518383611f52565b60208301905092915050565b6000611c6882612223565b611c728185612269565b9350611c7d83612203565b8060005b83811015611cae578151611c958882611c2d565b9750611ca08361224f565b925050600181019050611c81565b5085935050505092915050565b6000611cc68261222e565b611cd0818561227a565b9350611cdb83612213565b8060005b83811015611d0c578151611cf38882611c45565b9750611cfe8361225c565b925050600181019050611cdf565b5085935050505092915050565b611d22816122b8565b82525050565b6000611d3382612244565b611d3d81856122ad565b9350611d4d8185602086016122dd565b80840191505092915050565b6000611d6482612239565b611d6e818561228b565b9350611d7e8185602086016122dd565b611d878161231a565b840191505092915050565b6000611d9d82612239565b611da781856122ad565b9350611db78185602086016122dd565b80840191505092915050565b6000611dd060128361229c565b91507f55736520646f75626c6520696e737465616400000000000000000000000000006000830152602082019050919050565b6000611e10600e8361229c565b91507f496e76616c6964206e756d6265720000000000000000000000000000000000006000830152602082019050919050565b6000611e50600a8361229c565b91507f57726f6e672064617461000000000000000000000000000000000000000000006000830152602082019050919050565b604082016000820151611e996000850182611f52565b506020820151611eac6020850182611f52565b50505050565b604082016000820151611ec86000850182611f52565b506020820151611edb6020850182611f52565b50505050565b60006080830160008301518482036000860152611efe8282611d59565b9150506020830151611f136020860182611f52565b5060408301518482036040860152611f2b8282611c5d565b91505060608301518482036060860152611f458282611cbb565b9150508091505092915050565b611f5b816122c4565b82525050565b611f6a816122c4565b82525050565b611f81611f7c826122c4565b612310565b82525050565b6000611f938286611d28565b9150611f9f8285611f70565b602082019150611faf8284611f70565b602082019150819050949350505050565b6000611fcc8286611d92565b9150611fd88285611f70565b602082019150611fe88284611f70565b602082019150819050949350505050565b60006120058285611f70565b6020820191506120158284611f70565b6020820191508190509392505050565b600060208201905061203a6000830184611d19565b92915050565b6000602082019050818103600083015261205981611dc3565b9050919050565b6000602082019050818103600083015261207981611e03565b9050919050565b6000602082019050818103600083015261209981611e43565b9050919050565b60006040820190506120b56000830184611e83565b92915050565b600060208201905081810360008301526120d58184611ee1565b905092915050565b60006040820190506120f26000830185611f61565b6120ff6020830184611f61565b9392505050565b6000604051905081810181811067ffffffffffffffff8211171561212957600080fd5b8060405250919050565b600067ffffffffffffffff82111561214a57600080fd5b602082029050602081019050919050565b600067ffffffffffffffff82111561217257600080fd5b602082029050602081019050919050565b600067ffffffffffffffff82111561219a57600080fd5b602082029050602081019050919050565b600067ffffffffffffffff8211156121c257600080fd5b601f19601f8301169050602081019050919050565b600067ffffffffffffffff8211156121ee57600080fd5b601f19601f8301169050602081019050919050565b6000819050602082019050919050565b6000819050602082019050919050565b600081519050919050565b600081519050919050565b600081519050919050565b600081519050919050565b6000602082019050919050565b6000602082019050919050565b600082825260208201905092915050565b600082825260208201905092915050565b600082825260208201905092915050565b600082825260208201905092915050565b600081905092915050565b60008115159050919050565b6000819050919050565b82818337600083830152505050565b60005b838110156122fb5780820151818401526020810190506122e0565b8381111561230a576000848401525b50505050565b6000819050919050565b6000601f19601f8301169050919050565b612334816122c4565b811461233f57600080fd5b5056fea365627a7a72315820304b00423b8f07775302e038d4469c69c287da19cdcb571041e3174a5f8093ed6c6578706572696d656e74616cf564736f6c63430005100040",
  "source": "pragma solidity >= 0.5.0 < 0.7.0;\r\npragma experimental ABIEncoderV2;\r\n\r\nimport \"./ECSecp256k1.sol\";\r\n\r\n/**\r\n * @dev Implement the ring signature scheme described in https://eprint.iacr.org/2003/067.pdf\r\n*/\r\n\r\ncontract ECRingSignature is ECSecp256k1 {\r\n\r\n\r\n    /**\r\n     * @dev the format of the signature is described in https://eprint.iacr.org/2003/067.pdf\r\n    */\r\n    struct JGSignature {\r\n        string data;\r\n        uint256 delta;\r\n        ECSecp256k1.CurveElement[] RList;\r\n        uint256[] hashList;\r\n    }\r\n\r\n\r\n    // List of public keys in the ring\r\n\r\n    ECSecp256k1.CurveElement[] public pks;\r\n\r\n    function setPublicKeyList(ECSecp256k1.CurveElement[] memory pkeys, uint256 listSize) public {\r\n        for(uint256 i = 0; i < listSize; i++){\r\n            pks.push(pkeys[i]);\r\n        }\r\n    }\r\n\r\n\r\n    /**\r\n     * @dev Implementing the signing Operation\r\n     * @param ringSize: the size of the ringSign\r\n     * @param data: the signed data\r\n     * @param sk: the private key of signer\r\n     * @param indexS: the index of the signer in the ring\r\n     * @return (signature)\r\n    */\r\n\r\n    function ringSign(uint256 ringSize, string memory data, uint256 sk, uint256 indexS ) public view returns(JGSignature memory) {\r\n\r\n        ECSecp256k1.CurveElement[] memory RList = new ECSecp256k1.CurveElement[](ringSize);\r\n        uint256[] memory hashList = new uint256[](ringSize);\r\n        uint256 delta = 0;\r\n\r\n\r\n        ECSecp256k1.CurveElement memory G;\r\n        G = ECSecp256k1.CurveElement(ECSecp256k1.GX, ECSecp256k1.GY);\r\n\r\n        uint256 a;\r\n        uint256 hi;\r\n\r\n        ECSecp256k1.CurveElement memory Ri;\r\n        ECSecp256k1.CurveElement memory Rs;\r\n\r\n        ECSecp256k1.CurveElement memory hiPK;\r\n\r\n        Rs = ECSecp256k1.CurveElement(0,0);\r\n\r\n        for(uint256 i = 0; i < ringSize; i++){\r\n            if(i != indexS){\r\n                // Generate a random value a\r\n\r\n                a =  uint256(keccak256(abi.encodePacked( block.difficulty, i)));\r\n\r\n                Ri = ECSecp256k1.ecMul(a, G);\r\n                RList[i]   = Ri;\r\n\r\n                hi = uint256(keccak256(abi.encodePacked(data, Ri.X, Ri.Y)));\r\n                hiPK = ECSecp256k1.ecMul(-hi, pks[i]);\r\n                Rs = ECSecp256k1.ecAdd(Rs, hiPK);\r\n\r\n                hashList[i] = hi;\r\n                delta +=  a + sk* hi;\r\n\r\n            }\r\n        }\r\n\r\n        // Generate a random number a\r\n        a = uint256(keccak256(abi.encodePacked(block.difficulty, indexS)));\r\n\r\n        delta += a;\r\n        delta = delta % ECSecp256k1.PP;\r\n\r\n        ECSecp256k1.CurveElement memory Ga = ECSecp256k1.ecMul(a, G);\r\n        Rs = ECSecp256k1.ecAdd(Rs, Ga);\r\n\r\n        RList[indexS] = Rs;\r\n        hashList[indexS] = uint256(keccak256(abi.encodePacked(data, Rs.X, Rs.Y)));\r\n\r\n        return JGSignature(data, delta, RList, hashList);\r\n    }\r\n\r\n    /**\r\n     * @dev Verify the validity of a ring signature\r\n     * @param sig: the signature\r\n     * @param ringSize: the size of the ringVerify\r\n    */\r\n\r\n\r\n    function ringVerify(JGSignature memory sig, uint256 ringSize) public  returns(bool){\r\n        ECSecp256k1.CurveElement memory G;\r\n        G = ECSecp256k1.CurveElement(ECSecp256k1.GX, ECSecp256k1.GY);\r\n\r\n        uint256 hi;\r\n        for(uint256 i = 0; i < ringSize; i++){\r\n            hi = uint256(keccak256(abi.encodePacked(sig.data, sig.RList[i].X, sig.RList[i].Y)));\r\n            if(hi != sig.hashList[i]){\r\n                return false;\r\n            }\r\n        }\r\n\r\n\r\n        ECSecp256k1.CurveElement memory firstComparingElement;\r\n        ECSecp256k1.CurveElement memory secondComparingElement;\r\n\r\n\r\n        firstComparingElement = ECSecp256k1.ecMul(sig.delta, G);\r\n\r\n\r\n        secondComparingElement = ECSecp256k1.ecAdd(secondComparingElement, sig.RList[0]);\r\n        secondComparingElement = ECSecp256k1.ecAdd(secondComparingElement, ECSecp256k1.ecMul(sig.hashList[0], pks[0]));\r\n\r\n        for(uint256 i = 1; i < ringSize; i++){\r\n            secondComparingElement = ECSecp256k1.ecAdd(secondComparingElement, sig.RList[i]);\r\n            secondComparingElement = ECSecp256k1.ecAdd(secondComparingElement, ECSecp256k1.ecMul(sig.hashList[i], pks[i]));\r\n        }\r\n        delete pks;\r\n\r\n        if(ECSecp256k1.ecEqual(firstComparingElement, secondComparingElement)) return true;\r\n        return false;\r\n\r\n    }\r\n\r\n}\r\n",
  "sourcePath": "D:\\OneDrive\\Desktop\\hack_cult_project\\contracts\\ECRingSignature.sol",
  "compiler": {
    "name": "solc",
    "version": "0.5.16+commit.9c3226ce.Emscripten.clang"
  },
  "schemaVersion": "3.4.16",
  "updatedAt": "2024-12-13T10:10:33.765Z",
  "networkType": "ethereum",
  "devdoc": {
    "details": "Implement the ring signature scheme described in https://eprint.iacr.org/2003/067.pdf",
    "methods": {
      "derivePubKey(uint256)": {
        "details": "Public Key derivation from private key",
        "params": {
          "privKey": "The private key"
        },
        "return": "(CurveElement) The Public Key"
      },
      "ecAdd((uint256,uint256),(uint256,uint256))": {
        "details": "Add two curve elements",
        "params": {
          "e1": ": the first element",
          "e2": ": the second element"
        }
      },
      "ecEqual((uint256,uint256),(uint256,uint256))": {
        "details": "Compairing two elements onn the Curve",
        "params": {
          "e1": ": the first element",
          "e2": ": the second element"
        }
      },
      "ecMul(uint256,(uint256,uint256))": {
        "details": "Multiply an element on the curve with an interger",
        "params": {
          "e": ": the curve element",
          "k": ": the interger"
        },
        "return": "Return the value"
      },
      "ecSub((uint256,uint256),(uint256,uint256))": {
        "details": "Subtract a curve element by another element"
      },
      "randomElement(uint256)": {
        "params": {
          "seed": ": input"
        },
        "return": "randomBumber"
      },
      "ringSign(uint256,string,uint256,uint256)": {
        "details": "Implementing the signing Operation",
        "params": {
          "data": ": the signed data",
          "indexS": ": the index of the signer in the ring",
          "ringSize": ": the size of the ringSign",
          "sk": ": the private key of signer"
        },
        "return": "(signature)"
      },
      "ringVerify((string,uint256,(uint256,uint256)[],uint256[]),uint256)": {
        "details": "Verify the validity of a ring signature",
        "params": {
          "ringSize": ": the size of the ringVerify",
          "sig": ": the signature"
        }
      }
    }
  },
  "userdoc": {
    "methods": {
      "randomElement(uint256)": {
        "notice": "Generate a random curve element based on a given input"
      }
    }
  }
}