{
  "contractName": "EllipticCurveLib",
  "abi": [
    {
      "constant": true,
      "inputs": [
        {
          "internalType": "uint256",
          "name": "_x1",
          "type": "uint256"
        },
        {
          "internalType": "uint256",
          "name": "_y1",
          "type": "uint256"
        },
        {
          "internalType": "uint256",
          "name": "_x2",
          "type": "uint256"
        },
        {
          "internalType": "uint256",
          "name": "_y2",
          "type": "uint256"
        }
      ],
      "name": "comparePoints",
      "outputs": [
        {
          "internalType": "bool",
          "name": "",
          "type": "bool"
        }
      ],
      "payable": false,
      "stateMutability": "pure",
      "type": "function"
    }
  ],
  "bytecode": "0x60f6610025600b82828239805160001a60731461001857fe5b30600052607381538281f3fe730000000000000000000000000000000000000000301460806040526004361060335760003560e01c80635be98514146038575b600080fd5b607f60048036036080811015604c57600080fd5b81019080803590602001909291908035906020019092919080359060200190929190803590602001909291905050506099565b604051808215151515815260200191505060405180910390f35b6000828514801560a857508184145b1560b4576001905060b9565b600090505b94935050505056fea265627a7a72315820a7b389315bc78841b98da34bbb62d5db2901f6055a8378fa282ced6978ce241f64736f6c63430005100032",
  "source": "pragma solidity >= 0.5.0 < 0.7.0;\r\n\r\n\r\n/**\r\n * @dev Library provides arithmetic operations over elliptic curves.\r\n * The libary uses projective and Jacobian coordinates [1], [2] to speed up computations on the curves\r\n * [1] https://en.wikibooks.org/wiki/Cryptography/Prime_Curve/Standard_Projective_Coordinates\r\n * [2] https://en.wikibooks.org/wiki/Cryptography/Prime_Curve/Jacobian_Coordinates\r\n */\r\nlibrary EllipticCurveLib {\r\n\r\n\r\n  /**\r\n   * @dev Modular euclidean inverse of a number (mod p).\r\n   * @param _x The number\r\n   * @param _pp The modulus\r\n   * @return q such that x*q = 1 (mod _pp)\r\n  */\r\n\r\n  function invMod(uint256 _x, uint256 _pp) internal pure returns (uint256) {\r\n    if (_x == 0 || _x == _pp || _pp == 0) {\r\n      revert(\"Invalid number\");\r\n    }\r\n    uint256 q = 0;\r\n    uint256 newT = 1;\r\n    uint256 r = _pp;\r\n    uint256 newR = _x;\r\n    uint256 t;\r\n    while (newR != 0) {\r\n      t = r / newR;\r\n      (q, newT) = (newT, addmod(q, (_pp - mulmod(t, newT, _pp)), _pp));\r\n      (r, newR) = (newR, r - t * newR );\r\n    }\r\n\r\n    return q;\r\n  }\r\n\r\n\r\n  /**\r\n   * @dev Modular exponentiation, b^e % _pp. Source: https://github.com/androlo/standard-contracts/blob/master/contracts/src/crypto/ECCMath.sol\r\n   * @param _base base\r\n   * @param _exp exponent\r\n   * @param _pp modulus\r\n   * @return r such that r = b**e (mod _pp)\r\n  */\r\n\r\n  function expMod(uint256 _base, uint256 _exp, uint256 _pp) internal pure returns (uint256) {\r\n    if (_base == 0)\r\n      return 0;\r\n    if (_exp == 0)\r\n      return 1;\r\n    if (_pp == 0)\r\n      revert(\"Modulus is zero\");\r\n    uint256 r = 1;\r\n    uint256 bit = 2 ** 255;\r\n\r\n    assembly {\r\n      for { } gt(bit, 0) { }{\r\n        r := mulmod(mulmod(r, r, _pp), exp(_base, iszero(iszero(and(_exp, bit)))), _pp)\r\n        r := mulmod(mulmod(r, r, _pp), exp(_base, iszero(iszero(and(_exp, div(bit, 2))))), _pp)\r\n        r := mulmod(mulmod(r, r, _pp), exp(_base, iszero(iszero(and(_exp, div(bit, 4))))), _pp)\r\n        r := mulmod(mulmod(r, r, _pp), exp(_base, iszero(iszero(and(_exp, div(bit, 8))))), _pp)\r\n        bit := div(bit, 16)\r\n      }\r\n    }\r\n\r\n    return r;\r\n  }\r\n\r\n\r\n  /**\r\n   * @dev Converts a point (x, y, z) expressed in Jacobian coordinates to affine coordinates (x', y', 1).\r\n   * @param _x coordinate x\r\n   * @param _y coordinate y\r\n   * @param _z coordinate z\r\n   * @param _pp the modulus\r\n   * @return (x', y') affine coordinates\r\n  */\r\n\r\n  function toAffine(uint256 _x, uint256 _y, uint256 _z, uint256 _pp) internal pure returns (uint256, uint256){\r\n    uint256 zInv = invMod(_z, _pp);\r\n    uint256 zInv2 = mulmod(zInv, zInv, _pp);\r\n    uint256 x2 = mulmod(_x, zInv2, _pp);\r\n    uint256 y2 = mulmod(_y, mulmod(zInv, zInv2, _pp), _pp);\r\n\r\n    return (x2, y2);\r\n  }\r\n\r\n  /**\r\n   * @dev Derives the y coordinate from a compressed-format point x [[SEC-1]](https://www.secg.org/SEC1-Ver-1.0.pdf).\r\n   * @param _prefix parity byte (0x02 even, 0x03 odd)\r\n   * @param _x coordinate x\r\n   * @param _aa constant of curve\r\n   * @param _bb constant of curve\r\n   * @param _pp the modulus\r\n   * @return y coordinate y\r\n  */\r\n\r\n  function deriveY( uint8 _prefix, uint256 _x, uint256 _aa, uint256 _bb, uint256 _pp) internal pure returns (uint256){\r\n    require(_prefix == 0x02 || _prefix == 0x03, \"Invalid compressed EC point prefix\");\r\n\r\n    // x^3 + ax + b\r\n    uint256 y2 = addmod(mulmod(_x, mulmod(_x, _x, _pp), _pp), addmod(mulmod(_x, _aa, _pp), _bb, _pp), _pp);\r\n    y2 = expMod(y2, (_pp + 1) / 4, _pp);\r\n    // uint256 cmp = yBit ^ y_ & 1;\r\n    uint256 y = (y2 + _prefix) % 2 == 0 ? y2 : _pp - y2;\r\n\r\n    return y;\r\n  }\r\n\r\n\r\n  /**\r\n   * @dev Check whether point (x,y) is on curve defined by a, b, and _pp.\r\n   * @param _x coordinate x of P1\r\n   * @param _y coordinate y of P1\r\n   * @param _aa constant of curve\r\n   * @param _bb constant of curve\r\n   * @param _pp the modulus\r\n   * @return true if x,y in the curve, false else\r\n  */\r\n\r\n  function isOnCurve(uint _x, uint _y, uint _aa, uint _bb, uint _pp) internal pure returns (bool){\r\n    if (0 == _x || _x == _pp || 0 == _y || _y == _pp) {\r\n      return false;\r\n    }\r\n    // y^2\r\n    uint lhs = mulmod(_y, _y, _pp);\r\n    // x^3\r\n    uint rhs = mulmod(mulmod(_x, _x, _pp), _x, _pp);\r\n    if (_aa != 0) {\r\n      // x^3 + a*x\r\n      rhs = addmod(rhs, mulmod(_x, _aa, _pp), _pp);\r\n    }\r\n    if (_bb != 0) {\r\n      // x^3 + a*x + b\r\n      rhs = addmod(rhs, _bb, _pp);\r\n    }\r\n\r\n    return lhs == rhs;\r\n  }\r\n\r\n  /**\r\n   * @dev Calculate inverse (x, -y) of point (x, y).\r\n   * @param _x coordinate x of P1\r\n   * @param _y coordinate y of P1\r\n   * @param _pp the modulus\r\n   * @return (x, -y)\r\n  */\r\n\r\n\r\n  function ecInv(uint256 _x, uint256 _y, uint256 _pp) internal pure returns (uint256, uint256){\r\n    return (_x, (_pp - _y) % _pp);\r\n  }\r\n\r\n\r\n  /**\r\n   * @dev Add two points (x1, y1) and (x2, y2) in affine coordinates.\r\n   * @param _x1 coordinate x of P1\r\n   * @param _y1 coordinate y of P1\r\n   * @param _x2 coordinate x of P2\r\n   * @param _y2 coordinate y of P2\r\n   * @param _aa constant of the curve\r\n   * @param _pp the modulus\r\n   * @return (qx, qy) = P1+P2 in affine coordinates\r\n  */\r\n\r\n  function ecAdd(uint256 _x1, uint256 _y1, uint256 _x2, uint256 _y2, uint256 _aa, uint256 _pp) internal pure returns(uint256, uint256){\r\n    uint x = 0;\r\n    uint y = 0;\r\n    uint z = 0;\r\n    // Double if x1==x2 else add\r\n    if (_x1==_x2) {\r\n      (x, y, z) = jacDouble(_x1, _y1, 1, _aa, _pp);\r\n    } else {\r\n      (x, y, z) = jacAdd(_x1, _y1, 1, _x2, _y2, 1, _pp);\r\n    }\r\n    // Get back to affine\r\n    return toAffine( x, y, z, _pp);\r\n  }\r\n\r\n\r\n  /**\r\n   * @dev Substract two points (x1, y1) and (x2, y2) in affine coordinates.\r\n   * @param _x1 coordinate x of P1\r\n   * @param _y1 coordinate y of P1\r\n   * @param _x2 coordinate x of P2\r\n   * @param _y2 coordinate y of P2\r\n   * @param _aa constant of the curve\r\n   * @param _pp the modulus\r\n   * @return (qx, qy) = P1-P2 in affine coordinates\r\n  */\r\n\r\n  function ecSub( uint256 _x1, uint256 _y1, uint256 _x2, uint256 _y2, uint256 _aa, uint256 _pp) internal pure returns(uint256, uint256){\r\n    // invert square\r\n    (uint256 x, uint256 y) = ecInv(_x2, _y2, _pp);\r\n    // P1-square\r\n    return ecAdd(_x1, _y1, x, y, _aa, _pp);\r\n  }\r\n\r\n\r\n  /**\r\n   * @dev Multiply point (x1, y1, z1) times d in affine coordinates.\r\n   * @param _k scalar to multiply\r\n   * @param _x coordinate x of P1\r\n   * @param _y coordinate y of P1\r\n   * @param _aa constant of the curve\r\n   * @param _pp the modulus\r\n   * @return (qx, qy) = d*P in affine coordinates\r\n  */\r\n\r\n  function ecMul(uint256 _k, uint256 _x, uint256 _y, uint256 _aa, uint256 _pp) internal pure returns(uint256, uint256){\r\n    // Jacobian multiplication\r\n    (uint256 x1, uint256 y1, uint256 z1) = jacMul(_k, _x, _y, 1, _aa, _pp);\r\n    // Get back to affine\r\n    return toAffine(x1, y1, z1, _pp);\r\n  }\r\n\r\n\r\n  /**\r\n   * @dev Adds two points (x1, y1, z1) and (x2 y2, z2).\r\n   * @param _x1 coordinate x of P1\r\n   * @param _y1 coordinate y of P1\r\n   * @param _z1 coordinate z of P1\r\n   * @param _x2 coordinate x of square\r\n   * @param _y2 coordinate y of square\r\n   * @param _z2 coordinate z of square\r\n   * @param _pp the modulus\r\n   * @return (qx, qy, qz) P1+square in Jacobian\r\n  */\r\n\r\n  function jacAdd(uint256 _x1, uint256 _y1, uint256 _z1, uint256 _x2, uint256 _y2, uint256 _z2, uint256 _pp) internal pure returns (uint256, uint256, uint256){\r\n    if ((_x1==0)&&(_y1==0))\r\n      return (_x2, _y2, _z2);\r\n    if ((_x2==0)&&(_y2==0))\r\n      return (_x1, _y1, _z1);\r\n    // We follow the equations described in https://pdfs.semanticscholar.org/5c64/29952e08025a9649c2b0ba32518e9a7fb5c2.pdf Section 5\r\n\r\n    uint[4] memory zs; // z1^2, z1^3, z2^2, z2^3\r\n    zs[0] = mulmod(_z1, _z1, _pp);\r\n    zs[1] = mulmod(_z1, zs[0], _pp);\r\n    zs[2] = mulmod(_z2, _z2, _pp);\r\n    zs[3] = mulmod(_z2, zs[2], _pp);\r\n\r\n    // u1, s1, u2, s2\r\n    zs = [\r\n      mulmod(_x1, zs[2], _pp),\r\n      mulmod(_y1, zs[3], _pp),\r\n      mulmod(_x2, zs[0], _pp),\r\n      mulmod(_y2, zs[1], _pp)\r\n    ];\r\n    if (zs[0] == zs[2]) {\r\n      if (zs[1] != zs[3])\r\n        revert(\"Wrong data\");\r\n      else {\r\n        revert(\"Use double instead\");\r\n      }\r\n    }\r\n    uint[4] memory hr;\r\n    //h\r\n    hr[0] = addmod(zs[2], _pp - zs[0], _pp);\r\n    //r\r\n    hr[1] = addmod(zs[3], _pp - zs[1], _pp);\r\n    //h^2\r\n    hr[2] = mulmod(hr[0], hr[0], _pp);\r\n    // h^3\r\n    hr[3] = mulmod(hr[2], hr[0], _pp);\r\n    // qx = -h^3  -2u1h^2+r^2\r\n    uint256 qx = addmod(mulmod(hr[1], hr[1], _pp), _pp - hr[3], _pp);\r\n    qx = addmod(qx, _pp - mulmod(2, mulmod(zs[0], hr[2], _pp), _pp), _pp);\r\n    // qy = -s1*z1*h^3+r(u1*h^2 -x^3)\r\n    uint256 qy = mulmod(hr[1], addmod(mulmod(zs[0], hr[2], _pp), _pp - qx, _pp), _pp);\r\n    qy = addmod(qy, _pp - mulmod(zs[1], hr[3], _pp), _pp);\r\n    // qz = h*z1*z2\r\n    uint256 qz = mulmod(hr[0], mulmod(_z1, _z2, _pp), _pp);\r\n    return(qx, qy, qz);\r\n  }\r\n\r\n\r\n  /**\r\n   * @dev Doubles a points (x, y, z).\r\n   * @param _x coordinate x of P1\r\n   * @param _y coordinate y of P1\r\n   * @param _z coordinate z of P1\r\n   * @param _pp the modulus\r\n   * @param _aa the a scalar in the curve equation\r\n   * @return (qx, qy, qz) 2P in Jacobian\r\n  */\r\n\r\n  function jacDouble(uint256 _x, uint256 _y, uint256 _z, uint256 _aa, uint256 _pp) internal pure returns (uint256, uint256, uint256){\r\n    if (_z == 0)\r\n      return (_x, _y, _z);\r\n    uint256[3] memory square;\r\n    // We follow the equations described in https://pdfs.semanticscholar.org/5c64/29952e08025a9649c2b0ba32518e9a7fb5c2.pdf Section 5\r\n    // Note: there is a bug in the paper regarding the m parameter, M=3*(x1^2)+a*(z1^4)\r\n    square[0] = mulmod(_x, _x, _pp); //x1^2\r\n    square[1] = mulmod(_y, _y, _pp); //y1^2\r\n    square[2] = mulmod(_z, _z, _pp); //z1^2\r\n\r\n    // s\r\n    uint s = mulmod(4, mulmod(_x, square[1], _pp), _pp);\r\n    // m\r\n    uint m = addmod(mulmod(3, square[0], _pp), mulmod(_aa, mulmod(square[2], square[2], _pp), _pp), _pp);\r\n    // qx\r\n    uint256 qx = addmod(mulmod(m, m, _pp), _pp - addmod(s, s, _pp), _pp);\r\n    // qy = -8*y1^4 + M(S-T)\r\n    uint256 qy = addmod(mulmod(m, addmod(s, _pp - qx, _pp), _pp), _pp - mulmod(8, mulmod(square[1], square[1], _pp), _pp), _pp);\r\n    // qz = 2*y1*z1\r\n    uint256 qz = mulmod(2, mulmod(_y, _z, _pp), _pp);\r\n\r\n    return (qx, qy, qz);\r\n  }\r\n\r\n\r\n  /**\r\n   * @dev Multiply point (x, y, z) times d.\r\n   * @param _d scalar to multiply\r\n   * @param _x coordinate x of P1\r\n   * @param _y coordinate y of P1\r\n   * @param _z coordinate z of P1\r\n   * @param _aa constant of curve\r\n   * @param _pp the modulus\r\n   * @return (qx, qy, qz) d*P1 in Jacobian\r\n  */\r\n\r\n  function jacMul(uint256 _d, uint256 _x, uint256 _y, uint256 _z, uint256 _aa, uint256 _pp) internal pure returns (uint256, uint256, uint256){\r\n    uint256 remaining = _d;\r\n    uint256[3] memory point;\r\n    point[0] = _x;\r\n    point[1] = _y;\r\n    point[2] = _z;\r\n    uint256 qx = 0;\r\n    uint256 qy = 0;\r\n    uint256 qz = 1;\r\n\r\n    if (_d == 0) {\r\n      return (qx, qy, qz);\r\n    }\r\n    // Double and add algorithm\r\n    while (remaining != 0) {\r\n      if ((remaining & 1) != 0) {\r\n        (qx, qy, qz) = jacAdd(qx, qy, qz, point[0], point[1], point[2], _pp);\r\n      }\r\n      remaining = remaining / 2;\r\n      (point[0], point[1], point[2]) = jacDouble(point[0], point[1], point[2], _aa, _pp);\r\n    }\r\n    return (qx, qy, qz);\r\n  }\r\n\r\n\r\n  /**\r\n   * @dev comepare two points on the curve\r\n   * @param _x1: coordinate x of P1\r\n   * @param _y1: coordinate y of P1\r\n   * @param _x2: coordinate x of P2\r\n   * @param _y2: coordinate y of P2\r\n   * return a boolean value\r\n  */\r\n\r\n  function comparePoints(uint256 _x1, uint256 _y1, uint256 _x2, uint256 _y2) public pure returns(bool){\r\n      if((_x1==_x2) && (_y1==_y2)){\r\n          return true;\r\n      }\r\n\r\n      return false;\r\n  }\r\n}\r\n",
  "sourcePath": "D:\\OneDrive\\Desktop\\hack_cult_project\\contracts\\EllipticCurveLib.sol",
  "compiler": {
    "name": "solc",
    "version": "0.5.16+commit.9c3226ce.Emscripten.clang"
  },
  "schemaVersion": "3.4.16",
  "updatedAt": "2024-12-13T10:10:33.736Z",
  "networkType": "ethereum",
  "devdoc": {
    "details": "Library provides arithmetic operations over elliptic curves. The libary uses projective and Jacobian coordinates [1], [2] to speed up computations on the curves [1] https://en.wikibooks.org/wiki/Cryptography/Prime_Curve/Standard_Projective_Coordinates [2] https://en.wikibooks.org/wiki/Cryptography/Prime_Curve/Jacobian_Coordinates",
    "methods": {
      "comparePoints(uint256,uint256,uint256,uint256)": {
        "details": "comepare two points on the curve",
        "params": {
          "_x1": ": coordinate x of P1",
          "_x2": ": coordinate x of P2",
          "_y1": ": coordinate y of P1",
          "_y2": ": coordinate y of P2 return a boolean value"
        }
      }
    }
  },
  "userdoc": {
    "methods": {}
  }
}