{
  "contractName": "ProxyContract",
  "abi": [
    {
      "inputs": [
        {
          "internalType": "address",
          "name": "_initialContractVersion",
          "type": "address"
        }
      ],
      "payable": false,
      "stateMutability": "nonpayable",
      "type": "constructor"
    },
    {
      "constant": true,
      "inputs": [],
      "name": "currentContractVersion",
      "outputs": [
        {
          "internalType": "address",
          "name": "",
          "type": "address"
        }
      ],
      "payable": false,
      "stateMutability": "view",
      "type": "function"
    },
    {
      "constant": true,
      "inputs": [
        {
          "internalType": "uint256",
          "name": "",
          "type": "uint256"
        }
      ],
      "name": "globalIdentityContractList",
      "outputs": [
        {
          "internalType": "address",
          "name": "",
          "type": "address"
        }
      ],
      "payable": false,
      "stateMutability": "view",
      "type": "function"
    },
    {
      "constant": true,
      "inputs": [],
      "name": "getCurrentIdentityContract",
      "outputs": [
        {
          "internalType": "address",
          "name": "",
          "type": "address"
        }
      ],
      "payable": false,
      "stateMutability": "view",
      "type": "function"
    },
    {
      "constant": false,
      "inputs": [
        {
          "internalType": "address",
          "name": "upgradedContract",
          "type": "address"
        }
      ],
      "name": "upgradeIdentityContract",
      "outputs": [],
      "payable": false,
      "stateMutability": "nonpayable",
      "type": "function"
    },
    {
      "constant": true,
      "inputs": [],
      "name": "getAllIdentityContracts",
      "outputs": [
        {
          "internalType": "address[]",
          "name": "",
          "type": "address[]"
        }
      ],
      "payable": false,
      "stateMutability": "view",
      "type": "function"
    }
  ],
  "bytecode": "0x608060405234801561001057600080fd5b506040516104f53803806104f58339818101604052602081101561003357600080fd5b810190808051906020019092919050505080600160006101000a81548173ffffffffffffffffffffffffffffffffffffffff021916908373ffffffffffffffffffffffffffffffffffffffff16021790555060008190806001815401808255809150509060018203906000526020600020016000909192909190916101000a81548173ffffffffffffffffffffffffffffffffffffffff021916908373ffffffffffffffffffffffffffffffffffffffff16021790555050506103fa806100fb6000396000f3fe608060405234801561001057600080fd5b50600436106100575760003560e01c8063861fa7b01461005c578063984077aa146100a0578063d7536f81146100ff578063e66f8dff14610149578063f2d9d7c1146101b7575b600080fd5b61009e6004803603602081101561007257600080fd5b81019080803573ffffffffffffffffffffffffffffffffffffffff169060200190929190505050610201565b005b6100a86102ab565b6040518080602001828103825283818151815260200191508051906020019060200280838360005b838110156100eb5780820151818401526020810190506100d0565b505050509050019250505060405180910390f35b610107610339565b604051808273ffffffffffffffffffffffffffffffffffffffff1673ffffffffffffffffffffffffffffffffffffffff16815260200191505060405180910390f35b6101756004803603602081101561015f57600080fd5b810190808035906020019092919050505061035f565b604051808273ffffffffffffffffffffffffffffffffffffffff1673ffffffffffffffffffffffffffffffffffffffff16815260200191505060405180910390f35b6101bf61039b565b604051808273ffffffffffffffffffffffffffffffffffffffff1673ffffffffffffffffffffffffffffffffffffffff16815260200191505060405180910390f35b60008190806001815401808255809150509060018203906000526020600020016000909192909190916101000a81548173ffffffffffffffffffffffffffffffffffffffff021916908373ffffffffffffffffffffffffffffffffffffffff1602179055505080600160006101000a81548173ffffffffffffffffffffffffffffffffffffffff021916908373ffffffffffffffffffffffffffffffffffffffff16021790555050565b6060600080548060200260200160405190810160405280929190818152602001828054801561032f57602002820191906000526020600020905b8160009054906101000a900473ffffffffffffffffffffffffffffffffffffffff1673ffffffffffffffffffffffffffffffffffffffff16815260200190600101908083116102e5575b5050505050905090565b600160009054906101000a900473ffffffffffffffffffffffffffffffffffffffff1681565b6000818154811061036c57fe5b906000526020600020016000915054906101000a900473ffffffffffffffffffffffffffffffffffffffff1681565b6000600160009054906101000a900473ffffffffffffffffffffffffffffffffffffffff1690509056fea265627a7a723158204dc283f817673f76abbb2be9f831f7577141fe7f326951fec586496181b05bdc64736f6c63430005100032",
  "source": "pragma solidity >=0.5.0 < 0.7.0;\r\n\r\n\r\n/**\r\n * @dev The ProxyContract plays the registry role to store all addresses of all the deployed global identity contracts.\r\n * One can add updated contract in the registry so that users are aware of the up-to-date contract to interact with\r\n*/\r\n\r\ncontract ProxyContract{\r\n\r\n    /* @dev store all versions of global identity contracts, making the contract upgradable\r\n    */\r\n    address[] public globalIdentityContractList;\r\n    address public currentContractVersion;\r\n\r\n\r\n    /*\r\n    * @param _initialContractVersion: the address of the firstly deployed GlobalIdentityContract\r\n    */\r\n\r\n    constructor(address _initialContractVersion) public{\r\n        currentContractVersion = _initialContractVersion;\r\n        globalIdentityContractList.push(_initialContractVersion);\r\n\r\n    }\r\n\r\n    /**\r\n     * @dev Get the address of the current identity contract\r\n    */\r\n\r\n    function getCurrentIdentityContract() public view returns(address){\r\n        return currentContractVersion;\r\n    }\r\n\r\n    /**\r\n    * @dev Upgrade the newly deployed contract\r\n    * @param upgradedContract: address of the new contract\r\n    */\r\n    function upgradeIdentityContract(address upgradedContract) public{\r\n        globalIdentityContractList.push(upgradedContract);\r\n        currentContractVersion = upgradedContract;\r\n    }\r\n\r\n\r\n    /**\r\n     * @dev Get the addresses of all the deployed contracts\r\n    */\r\n\r\n    function getAllIdentityContracts() public view returns(address[] memory){\r\n        return globalIdentityContractList;\r\n    }\r\n\r\n}\r\n",
  "sourcePath": "D:\\OneDrive\\Desktop\\hack_cult_project\\contracts\\ProxyContract.sol",
  "compiler": {
    "name": "solc",
    "version": "0.5.16+commit.9c3226ce.Emscripten.clang"
  },
  "schemaVersion": "3.4.16",
  "updatedAt": "2024-12-13T10:10:33.772Z",
  "networkType": "ethereum",
  "devdoc": {
    "details": "The ProxyContract plays the registry role to store all addresses of all the deployed global identity contracts. One can add updated contract in the registry so that users are aware of the up-to-date contract to interact with",
    "methods": {
      "getAllIdentityContracts()": {
        "details": "Get the addresses of all the deployed contracts"
      },
      "getCurrentIdentityContract()": {
        "details": "Get the address of the current identity contract"
      },
      "upgradeIdentityContract(address)": {
        "details": "Upgrade the newly deployed contract",
        "params": {
          "upgradedContract": ": address of the new contract"
        }
      }
    }
  },
  "userdoc": {
    "methods": {}
  }
}